:0300000002099260
:0C099200787FE4F6D8FD75810A02092286
:10096F004469676974616C20566F6C746D6574654A
:02097F00720004
:0808D500C2B1D2B27F027E0025
:1008DD00E4FDFCC3ED9FEC9E5015E4FBFA0BBB0051
:0F08ED00010ABA04F8BBFBF50DBD00010C80E455
:0108FC0022D9
:0A099E008FA0C2B01208D5C2B22229
:0709810012082BEF2430FFE8
:0A0988008FA0D2B01208D5C2B2222F
:1008FD008B088A09890AAB08AA09A90A120800609F
:10090D0013050AE50A7002050914F9120800FF1211
:05091D00098880E222C0
:10095B007F3812099E7F0C12099E7F0112099E7F20
:04096B008002099E5F
:10094100C2B67F017E001208DDD2B620B5FDC2B766
:0A0951007F017E001208DDAF902246
:100880007C017DF41208191C7DFF12082B8E088F45
:10089000097FC012099EAE08AF097C007D64120971
:1008A000817F2E120988AE08AF097C007D64120892
:1008B0002B7E007F0ACFCDCFCECCCE120981AE08E1
:1008C000AF097C007D0A12082BED2430FF12098845
:0508D0007F56020988BB
:1009220012095B7BFF7A09796F1208FD120941A94E
:0F093200077E001208807FC87E001208DD80ED6E
:10080000BB010689828A83E0225002E722BBFE02F6
:09081000E32289828A83E4932229
:10081900EF8DF0A4A8F0CF8CF0A428CE8DF0A42EF3
:02082900FE22AD
:10082B00BC000BBE0029EF8DF084FFADF022E4CCB1
:10083B00F875F008EF2FFFEE33FEEC33FCEE9DEC7A
:10084B00984005FCEE9DFE0FD5F0E9E4CEFD22EDC0
:10085B00F8F5F0EE8420D21CFEADF075F008EF2F0A
:10086B00FFED33FD4007985006D5F0F222C398FDFB
:05087B000FD5F0EA2298
:00000001FF
